:020000040800F2
:1010000000500020454A0008414A00083F4A0008B5
:101010003F4A00083F4A00083F4A0008000000001D
:10102000000000000000000000000000414A00082D
:10103000414A000800000000414A0008414A0008F7
:101040003F4A00083F4A00083F4A00083F4A00085C
:101050003F4A00083F4A00083F4A00083F4A00084C
:101060003F4A00083F4A00083F4A00083F4A00083C
:101070003F4A00083F4A00083F4A00083F4A00082C
:101080003F4A00083F4A00083F4A0008253100084F
:1010900005310008153100083F4A00083F4A0008A2
:1010A0003F4A00083F4A00083F4A00083F4A0008FC
:1010B0004D1400083F4A00083F4A00083F4A000814
:1010C0003F4A00083F4A00083F4A00083F4A0008DC
:1010D0003F4A00083F4A00083F4A00083F4A0008CC
:1010E0003F4A00083F4A00083F4A00083F4A0008BC
:1010F0003F4A00083F4A00083F4A00083F4A0008AC
:101100003F4A00083F4A00083F4A00083F4A00089B
:101110003F4A00083F4A00083F4A00083F4A00088B
:101120003F4A00083F4A00083F4A00083F4A00087B
:101130003F4A00083F4A00083F4A00085131000872
:1011400031310008413100083F4A00083F4A000899
:1011500010B54FF47A7403F04DFA01F095FA164B7E
:1011600010201968490191FBF4F100F01BFC134BAE
:1011700013201968490191FBF4F100F013FC104BA6
:1011800014201968490191FBF4F100F00BFC0D4BA0
:1011900015201968490191FBF4F100F003FCBDE84A
:1011A00010404FF46161084B16201B685B0193FBF4
:1011B000F1F100F0F7BB00BFD0030020E0030020F6
:1011C000D8030020D4030020DC0300200346B3F53D
:1011D000A56F084628D8B3F5A46F07D8B3F5847F68
:1011E0000ED040F2091293420CD07047A3F2225362
:1011F000062B09D8DFE803F00A0C0E1012141600B3
:1012000002F0B0BA02F0B4BA02F066BB02F06CBBF6
:1012100002F072BB02F078BB02F07EBB02F08CBB26
:1012200002F092BB02F098BB70470000744B70B59F
:101230009988186803F001F803F008F8714B724DB3
:10124000186800F06FFB41010A2091FBF0F100F0FB
:10125000A9FB2B7873B903F0CDF964280AD96B4B3D
:101260009988186802F0E6FF20B101210720297053
:1012700000F090FB072000F085FB012804460BD10D
:1012800003F0B8F9C82807D9204602F08BFA604B62
:101290009988186802F0C9FF072000F073FB012845
:1012A0005C4E0AD133785B0707D50221072000F096
:1012B00071FB03F09FF9584B1860072000F062FBA8
:1012C000022826D1554B9988186802F0B3FFD8B987
:1012D0000022534B1A70534B9988186802F0A5FFEF
:1012E000514B9988186802F0A0FF03F083F94A4B2C
:1012F0001C68041B042000F045FB844209DD032127
:10130000072000F047FB04E0052000F03BFB00282D
:10131000DED1072000F036FB03280FD1002000F0BB
:1013200031FB0446022000F02DFB8442A8BF044696
:101330007D2CA8BF7D24E0B202F046FA072000F021
:1013400021FB042802D1002002F03EFA032000F025
:1013500019FB364B18800B2000F00EFB344B0011AC
:101360001870344B0D20197800F014FB2B78F3B172
:101370000C2000F007FB044690B3002002F012FAA4
:10138000234B9988186802F052FF0421072000F0CF
:1013900001FB294B0F20198800F0FCFA274B0E2087
:1013A000197800F0F7FA264B186802F025FA0820A1
:1013B000317800F0EFFA234B1220B3F9001000F05F
:1013C000E9FA062000F0DEFA012818D102F000FB4D
:1013D0000021062000F0DEFABDE8704001F0DCB824
:1013E0000B2000F0C9FA0546012000F0C5FA85423D
:1013F000C3DA204600F0C6FA0028BED0C9E770BDA7
:101400004003002020030020180300207003002068
:1014100050030020B10300201403002068030020C3
:10142000BF0300204803002058030020B60300201B
:10143000B0030020B8030020B4030020B203002052
:101440001C030020C403002070470000014B1868F3
:1014500000F03ABA2003002000B5ADF2AC7D00F0F8
:10146000E9F800F065F901225F49604801F070F881
:10147000002380225E495F4800F00AFE01234022DB
:101480005B495D4800F004FE0223082258495B488E
:1014900000F0FEFD04234FF480525549584800F0F7
:1014A000F7FD04234FF400525149564800F0F0FD77
:1014B00004234FF480424E49534800F0E9FD0423D1
:1014C0004FF400524849514800F0E2FD00F0BAFFE5
:1014D00000F0ECF800F038F900F020F901F0A8F87D
:1014E0004FF08041684695AC00F094F9484B0122DA
:1014F00048492046C3F800D001F06EFD464A00215D
:1015000053683B4843F4804353604FF48073022296
:1015100002F056FE4FF48071354802F086FE02223A
:101520004FF400730321324802F04AFE3B4B204641
:101530001C6005233A498DF8A43701F0DAF84FF41E
:101540008471204601F078FA40F20911204601F03A
:1015500073FA40F21151204601F06EFA40F2215127
:10156000204601F069FA40F22251204601F064FA67
:1015700040F22351204601F05FFA40F22451204608
:1015800001F05AFA40F22551204601F055FA40F296
:101590002651204601F050FA40F22651204601F033
:1015A0004BFA40F22751204601F046FA4FF4A5616C
:1015B000204601F041FA00231A4A1B490AA800F00C
:1015C000E1FA0A226846194900F048F968461849C4
:1015D000642200F043F90421092000F0DBF90AA895
:1015E00000F0E4FBFBE700BF00100140780300209F
:1015F000000C0140700300206803002060030020FD
:10160000580300205003002048030020400300201E
:101610002003002000640040000001401C03002063
:10162000CD110008E44D00080048004051110008A9
:101630002D12000808B502F017FF4FF0E0231A4AF8
:1016400040F20230C3F80C2D02F052FF40F203309A
:1016500002F04EFF4FF4417002F04AFF40F20530B5
:1016600002F046FF40F2923002F042FF4FF4607009
:1016700002F03EFF40F2823002F03AFF4FF4207059
:1016800002F036FF40F2093002F032FF40F28620CD
:1016900002F02EFF4FF4407002F02AFFBDE8084030
:1016A00040F2993002F024BF0003FA0570B596B0FD
:1016B00001A81422002100F0E4FC134A134B144942
:1016C000CDE901234FF4B833CDE9031302F01CFC3C
:1016D000142101A802F026FC0E4C1590236D8342C4
:1016E00010D002F047FD204602F0FAFC0A4E01AD90
:1016F000204655F8041B043402F056FDB442F7D1DD
:1017000002F044FD16B070BD001001400020010140
:10171000000C014000F4010854F4010808B51C2035
:1017200003F0E2F9BDE80840E0211C2003F0E8B92D
:1017300008B503204FF41C7102F094FFBDE8084087
:10174000002002F061BF000010B5304C204602F0CE
:10175000C9FF0021204602F0B1FF204602F0A9FF98
:1017600020460622002102F0C6FF20460622022162
:1017700002F0C1FF20460622042102F0BCFF06222F
:101780002046114602F0B7FF2046002103F079F809
:101790002046022103F075F82046042103F071F879
:1017A0002046062103F06DF82046002103F083F85F
:1017B0002046022103F07FF82046042103F07BF845
:1017C0002046062103F077F82046002103F098F820
:1017D0002046022103F094F82046042103F090F8FB
:1017E0002046062103F08CF82046012103F0BDF8C5
:1017F0002046002102F07BFF20464FF4805102F08A
:1018000078FF2046BDE8104002F067BF00080040A6
:101810007047000038B50D4604460162084602F0E4
:1018200048FF284602F054FF284640F2CF2102F03C
:101830005EFF28464FF6FF7102F05BFF064B204625
:10184000C4E90033C4E902334FF0FF33C4E9043381
:101850000023636238BD00BF11180008F8B5436A61
:101860000446032B0E4615462ADC006A02F03AFFB6
:10187000144F636A0122F95C206A02F03CFF636A3C
:101880000022F95C206A03F060F80221636A05EB2C
:10189000850505EB850503F10802AD0044F82360DA
:1018A000994024F81250206A02F0F6FE0021206AC6
:1018B00003F061F8206A02F010FF636A013363628B
:1018C000F8BD00BF3C4B00082DE9F8430446002555
:1018D000022700F1100607FA05F94946206A02F0CE
:1018E000DFFEC0B1206A03F044F849468046206A12
:1018F00002F0DCFE236A3288343353F825100A44A0
:1019000043F8252054F825309847206A03F031F831
:10191000A0EB080030810135042D06F10206DAD172
:10192000BDE8F88330B500F10E0100F116030A2579
:1019300000204A8931F8024F6A43B2FBF4F28B422D
:101940001044F6D130BD000010B51C24084A04FB39
:101950000022D4688C4209DC12698A4206DB054AFF
:1019600042F82010FFF770FD002010BDFF20FCE7BB
:101970005C00002000000020014B53F8200070475D
:1019800000000020024B53F820004011704700BFB8
:1019900000000020024B490143F82010704700BFAF
:1019A00000000020014B43F8201070470000002089
:1019B00070B506460024074D3146686800F0C2FA4B
:1019C00008B9E0B270BD0134172C05F11C05F3D144
:1019D0001820F7E75C0000200023064A9169814245
:1019E00001D1D8B270470133172B02F11C02F5D197
:1019F000182070475C0000201C22024B02FB0030C4
:101A0000704700BF5C0000201C22044B02FB003327
:101A1000D3E90303C01A18BF012070475C000020FF
:101A20000023064A0649906910B1506941F8230025
:101A30000133172B02F11C02F5D170475C00002026
:101A400000000020014B1954704700BF2403002000
:101A5000024B1A5C11431954704700BF2403002045
:101A6000024A135C23EA0103135470472403002045
:101A7000014B185C704700BF24030020024B1A681A
:101A8000024BC3F8E4217047000300205C000020F3
:101A900038B50446A37D23B9A068BDE8384002F0FC
:101AA000A7BF94F82030626ADB01234413440A295B
:101AB00083F8A91001D07F2A39D11E4D6368022214
:101AC0002846197902F051FA18B994F82830002BF9
:101AD000F4D063681748197902F090FA626A636873
:101AE00001321979134892B202F0AAFA94F8202030
:101AF000636804EBC21219790E48A93202F090FA19
:101B00006368022219790B4802F02AFA63680948CF
:101B1000197902F06AFA94F82030B3FA83F35B097A
:101B200084F82030002384F82830636238BD013205
:101B30006262FBE7000002402021806802F079BF6A
:101B4000806802F06EBF000038B504460C4D436853
:101B50002846597902F052FA63682846597904F107
:101B6000290202F05DFA636828465979802202F062
:101B700067FA636828465979BDE8384002F035BAFB
:101B80000000024070B5026140F201120D464A4960
:101B90008282016001210022817580F828100446AC
:101BA0000321C0E9062280F820204262434A856072
:101BB0000373426062681068A84206D1404A14600C
:101BC00062683BB99068938906E018320139626017
:101BD000F0D1F3E71069938A0222032102F0F0FAB0
:101BE00028464FF4E13102F0C9FE2846082102F0F0
:101BF000D9FE28464FF4005102F0DDFE28460C21A4
:101C000002F0E5FE2846002102F0DBFE0021284616
:101C100002F0E3FE284602F0F6FE284602F0F8FE47
:101C200063682848197902F08BF9636825481979A7
:101C300002F0D2F963682E1D32461979214802F06C
:101C4000E6F96368002219791E4802F0A3F9636877
:101C5000002219791B4802F091F963681948197933
:101C600002F0A4F963681748597902F069F96368CA
:101C700032465979134802F0CAF96368002259794B
:101C8000104802F087F96368002259790D4802F084
:101C900075F963680B48597902F088F96368094857
:101CA000597902F0A2F92046FFF74EFF284602F0CC
:101CB0009AFE204670BD00BF404D0008444D00080C
:101CC0003C0300200000024038B5437D0D46046906
:101CD0001BB90024204638BD0834216821B12846AC
:101CE00000F030F90028F7D12368002BF2D1F0E79B
:101CF00038B505464C1E14F8011F01B938BDA86857
:101D000002F076FEF7E7000010B50446084600F042
:101D100083F900F068F9237D227B8342636811D147
:101D2000012161755AB118699B8A0321022202F0D0
:101D300047FA2046BDE810400949FFF7D9BF986827
:101D40009B89F2E7002161753AB118699B8A0122EB
:101D5000BDE81040002102F033BA98689B89F6E78D
:101D6000CB4F000838B50446084600F055F9037813
:101D7000302B637D14BF4FF461254FF4E1353BB147
:101D800020460849FFF7B4FF20460749FFF7B0FF98
:101D90002946A06802F0F2FDA0680021BDE83840A5
:101DA00002F009BECB4F0008F04C00082DE9F041CD
:101DB000436804465979484802F03BF90546C0F1AA
:101DC000800610B92046FFF7BFFEE369B34245DB4A
:101DD000002E7EDD651B95F8A8300A2B01D00D2B57
:101DE0006BD10022A31904F1290783F829202021AF
:101DF0003846E26100F0C4F890F800800546B8F17A
:101E0000000F34D10A21384600F0BAF8054684F8AC
:101E1000A9812B7823B90D21384600F0B1F8054689
:101E2000002338462B702D49A36100F08BF820BBAE
:101E3000204604F2A911FFF767FF2046FFF784FE52
:101E4000A369002B45D0A06802F0EFFDA3692046EE
:101E500004F2A9115B68BDE8F04118475A1CE26121
:101E6000234493F82910A06802F0C2FDADE7411C9D
:101E700004F2A91000F074F8CBE73846184900F0D6
:101E800061F828B9204604F2A911FFF76BFFD4E7E7
:101E900039462046FFF718FFA0612046FFF754FEA1
:101EA000A369002BCFD1012E13D0637D8BB12046C7
:101EB000BDE8F0410B49FFF71BBF94F82930212BF7
:101EC00007D1A3692BB12046FFF73EFE0023E36153
:101ED000BCE7BDE8F08100BF00000240074D0008EC
:101EE000124D00081B4D0008034BC1B21B681A6855
:101EF00018461268104700BF3C030020704700F0EE
:101F0000DFBB000007B50749D1F8F027D1F8EC375F
:101F1000D1F8E8170091044900F086FA03B05DF8A3
:101F200004FB00BF00F0FF1F8C4D000810B50446F5
:101F3000FFF776FD2046BDE81040014900F074BA75
:101F4000954D0008431E013913F8010F11F8012FB8
:101F500010B10AB19042F7D0801A18BF0120704723
:101F6000013911F8013F0BB90370704700F8013BCC
:101F7000F7E7034600201A5C02B970470130FAE720
:101F80000346184613F8012B0AB18A42F9D170476B
:101F9000002970B518DA2D23012400F8013B4942CD
:101FA000034691FBF2F602FB161130311970311E17
:101FB0001D4603F10103F4DC00221A70024695422B
:101FC0000AD8241A181904E004D130234170037090
:101FD000012070BD0024E3E711782E7802F8016B30
:101FE00005F80119EBE730B503782D2B11D14FF02F
:101FF000FF34013000210A25431E01E005FB0121C9
:1020000013F8012F303AD0B20928F7D904FB01F0B8
:1020100030BD0124EEE7000010B5134C02780146F4
:10202000A2F10A03DBB2162B00F1010017D9A2B10D
:102030000846FFF79EFF0C4C0138084481420246D7
:1020400009D2137801380A3BDBB2162B03D844FAC5
:1020500003F3DB07F2D500235370084610BD44FAA2
:1020600003F3DA07DAD5E3E7F6FFBFFF002310B585
:10207000934200D110BD51F8234040F82340013372
:10208000F6E7013A00D2704740F8041BF9E7000078
:102090002DE9F0415C1EE4B2032C0D4616460160AA
:1020A000828007D913462846BDE8F041022200216C
:1020B00002F086B8094B0A491F5D1346094A2846B3
:1020C000125D095D02F07CF8012F05D131462846EA
:1020D000BDE8F04102F0A9B8BDE8F081544E000817
:1020E0005C4E0008584E000870B50C1E05464FF0B7
:1020F000640320DA6442611104F01F045C43064665
:102100002D23641106F8013B0A223046FFF740FFF9
:102110002E22092C325498BF302206EB000398BFC0
:102120005A7021464FF00A028CBF581C981CFFF7CA
:102130002FFF284670BD611104F01F045C43064662
:102140006411E1E7F0B503782D2B17D14FF0FF367E
:10215000013000244FF00A0C02E018460CFB045436
:10216000034613F8012BA2F13005EFB2092FF4D981
:10217000AAB98C40144406FB04F0F0BD0126E8E740
:102180008B4003EB650393FBF5F30CFB05F51A4459
:1021900010F8013F303BDFB2092FF1D9E9E70A25FA
:1021A0000022AC46F4E72DE9F047141E05460F4621
:1021B00016DC4FF02008DB0720D50026B94626E0C4
:1021C0000132B95C0029FBD1A242ACBF0C46A41A73
:1021D00013F0020F0CBF4FF020084FF03008EAE771
:1021E0000022EEE72B68494628461B689847013EC7
:1021F000002EF7DC24EAE476A41BDFE726465FFA2C
:1022000088F9F5E72B6828461B689847D146CA46E7
:102210001AF8011B0029F5D1A2465FFA88F8BAF135
:10222000000F06DCF01B4844002CA8BF0019BDE8D5
:10223000F0872B68414628461B6898470AF1FF3A09
:10224000EDE72DE9FF470746DDE90C8A15461C46F8
:1022500051B930234246ADF8043001A95346FFF787
:10226000A2FF04B0BDE8F08723B10A2A2DD10029CE
:102270002BDA494200230E9A8DF80F303A3A0DF1CD
:102280000F03B1FBF5F005FB1016092E88BFB61839
:1022900030368D4203F1FF3903F8016C17D964B170
:1022A000B8F1000F16D01AF0020F13D03B682D21A1
:1022B00038461B68984708F1FF385346424649465E
:1022C0003846FFF770FF2044CBE70024D2E70146F1
:1022D0004B46D6E72D22002409F8012CA3F1020970
:1022E000EBE70846FFF700BE2DE9F04107460E4632
:1022F000144600254FF00A088AB033781BB92846E7
:102300000AB0BDE8F081252B72D17378002BF6D08E
:10231000252B06F101026AD02D2B0ABF01230023D1
:10232000B21C164612F8011B302916D00022304686
:1023300010F8011BA1F1300C5FFA8CFEBEF1090F01
:102340000ED9732910D121682D480434002908BF03
:1023500001463846FFF727FF21E043F00203E0E79C
:10236000064608FB02C2E2E766292CD007D863299B
:1023700034D0642915D058291BD00136BDE7752902
:102380001AD07829F9D121466120CDE90130009297
:1023900000231022384609680434FFF752FF054431
:1023A000EBE761202146CDE90130012300920A22AA
:1023B000F0E721464120E8E761202146CDE90130E0
:1023C00000920023F3E7216807A8CDE90423043431
:1023D000FFF78AFEDDE9042307A9BAE72168043480
:1023E0008DF8181000218DF8191006A9B1E71646CE
:1023F0003B6838461B68317898470135BDE700BF18
:10240000604E00080FB407B504AA52F8041B054B30
:102410006846CDE90032FFF767FF03B05DF804EBD3
:1024200004B07047704E00080EB403B503AA52F80A
:10243000041B0192FFF758FF02B05DF804EB03B0F4
:102440007047000007B52D4801F032FB2B4801F022
:1024500034FB2A4801F03BFB284801F033FB012103
:10246000264801F010FB254801F0E0FA0023244A39
:102470000193019B93423DDD204801F0E7FA1F489C
:1024800001F0F7FA01211F4A1C4801F025FB1B4807
:1024900001F05AFB01211C4A1C4801F0B8FD012142
:1024A0001B4A1A4801F0BCFD4FF480720121174805
:1024B00001F070FD4FF480620121144801F05EFDCF
:1024C0000C220121114801F0BBFD01210F4801F050
:1024D0006DFD01210D4801F072FD01210B4801F055
:1024E00084FD064801F026FB044803B05DF804EBC8
:1024F00001F0A4BA019B01330193BAE70024014023
:102500007F380100940300204C2401400000024069
:102510007C0300200D4B98420BD003F5806398425A
:102520000DD0A3F5006398420ED107290CDCC8B288
:102530007047012908DC01F10800C0B27047052985
:1025400002DC01F10A00F8E710207047000C01409E
:10255000012370B593400C461546002206461146ED
:102560009BB2204601F02CFE29462046FFF7D2FF01
:10257000034A33689B1A034AC3F34F03D05470BD18
:102580007C03002094030020014B024A1A6070472C
:10259000780300207C0300202DE9F041ADF5806D2B
:1025A00001F0B2FC4FF480724FF0FF316846FFF744
:1025B00068FDE8466C460025EEB23046FFF724FA87
:1025C000B0B17F2D04F1080412D03046FFF714FAA1
:1025D00007463046FFF74CFA04F8050CBB69304655
:1025E00024F8083CFFF7C8F9013544F8040CE3E788
:1025F000FE21684601F096FCFE9001F0BBFD0A4802
:1026000001F06EFD084C094D204658F8041B0434B7
:1026100001F0CAFDAC42F7D101F0B8FDFE980DF50E
:10262000806DBDE8F08100BF00FC000800000108DB
:1026300070B5144C01F068FCFE21204601F072FCDC
:10264000D4F8F833834219D10025EC0004F100647A
:1026500004F57C442088FFF7BFF91828064608D007
:10266000238833B16168FFF79DF93046E178FFF7C1
:10267000E9F901357F2DE8D1002070BD4FF0FF3022
:10268000FBE700BF00FC0008014B1860704700BF6B
:1026900098030020074B10B403EBC1021479064ADB
:1026A00053F8313052F82420014610BC0348FFF79C
:1026B000A9BE00BFCC4E0008C04E0008744E0008F2
:1026C00038B5094C636853B10025606830B114F81F
:1026D000081B0135FFF7DEFF042DF6D138BD034896
:1026E000BDE83840FFF78EBEE0020020844E0008AF
:1026F0007047C0F8301570472DE9F04F00240646AA
:102700004FF6FF780B9F3C7006F1320526E0A5F1ED
:10271000300A544694F90590B9F1000F17DDB4F86A
:1027200000B08B450DD10120C2F800E022791A607B
:10273000099BB4F90220C3F800900A9B1A60BDE817
:10274000F08F0634A4EB0A09B9F12A0FE2DDACEBF5
:10275000060CBCF5E17F05F1320504DC35F832ECFE
:10276000AC46C645D3D101253C7800F5FA763D70DC
:10277000002CC9D00020E2E730B50C2400236143CF
:102780000B4A8BB054185258A568CDE90332CDE9F5
:102790000733CDE90133646806950594009301225F
:1027A0001946D0F84C0501F0E1F90BB030BD00BF7F
:1027B000DC4E0008F7B515461E4604460F46D0F815
:1027C0004C05012101F0C8FA0023CDE900651A4645
:1027D0003946D4F84C0501F0C4FA002812DAD4F8CE
:1027E0002C0513280EDC04EB0013C3F8F0632968F2
:1027F0000130C3F8F4136A68A3F8EC73C3F8F82344
:10280000C4F82C05D4F82C35002B07DD0121D4F8B1
:102810004C0503B0BDE8F04001F09ABA03B0F0BD3A
:102820002DE9F04F06464FF0020A002785B000F56B
:10283000FA730291039306F132044FF6FF7234F8F3
:10284000323CA046934224D0A4F1300BA4F12A05D7
:1028500015F9013CA946002B14DD15F8022C15F8DA
:10286000060C34F8321C019735F904CCA9EB0B099E
:10287000CDF800C0DDF808C0E047B9F12A0F05F136
:102880000605E5DDA8EB0608B8F5E17F04F13204A2
:10289000D3DD0127BA45039E01D0BA46CBE705B088
:1028A000BDE8F08F0128DABF024B53F8200000206A
:1028B000704700BF9C03002013B50446D4F82C35A4
:1028C000002B1ADD5A1E04EB031304EB021203F56E
:1028D0007973B2F8EC13019392F8F033009300236C
:1028E000D4F84C051A4601F03CFA002805DBD4F870
:1028F0002C35013BC4F82C35E0E7D4F82C353BB936
:102900000121D4F84C0502B0BDE8104001F024BA12
:1029100002B010BDF0B51C4626880F467601B1B254
:102920000126106885B09B8815466288029606408D
:102930000196E6885B017601B6B252019BB292B273
:10294000009601F0F5F900233B602A6801322A6005
:10295000E380A3806380238005B0F0BD2DE9FF41B3
:102960000122002304460025D0F84C150092304A7D
:10297000CDF80A309142ADF80E3018BF2D4B00F261
:1029800032561CBFD3F8003AC3F30523019390F8E5
:10299000503503F5C063ADF80830D4F84825009BE6
:1029A000AA4228DC4FF6FF7704F5FA7804F22625D0
:1029B00035F8322C2E46BA42009B10D004A901EB08
:1029C0004301032B21F8082C03F1010228D00092C7
:1029D000A6EB0806B6F5E17F05F13205E8DD009BC0
:1029E000002B05DD6946204602AB01AAFFF792FFE6
:1029F00004B0BDE8F08136F8021F04AA02EB4302DE
:102A0000032B22F8081C03F1010202D000920135C9
:102A1000C3E76946204602AB01AAFFF77BFFF6E752
:102A20006946204602AB01AAFFF774FFD0E700BF5A
:102A30000064004000600040D0F8482510B5092A25
:102A40000ADC00EB42040132A4F83415C0F8482532
:102A5000FFF784FF012010BD0020FCE74FF6FF7058
:102A6000002301F5FA720880CB714B73CB744B765F
:102A7000CB7781F8253081F82B3081F83130323135
:102A80008A42F0D1704710B504460146FFF7E6FFD1
:102A9000204604F5FA71FFF7E1FF2046BDE810403B
:102AA000FFF75CBF0023C85A904205D03233B3F51C
:102AB000FA7FF8D100207047C81870472DE9F84315
:102AC000B3F5006F8146DDE908760C461546984659
:102AD00032DA3F2F33DC202E34DC1A46FFF7E2FFD8
:102AE00038B94FF6FF724846FFF7DCFF68B3A0F82D
:102AF0000080023090F90530002B1BDC013327D019
:102B0000BDF9283005804380077146714FF6FF718B
:102B1000002004F1320333F8325C1A468D4207D0AC
:102B2000121BB2F5E17F00F1010003F13203F2DD87
:102B3000BDE8F8830630DDE74FF0FF30F8E76FF0CF
:102B40000100F5E76FF00200F2E76FF00300EFE736
:102B50006FF00400ECE71FB5BDF91C400294069C21
:102B6000CDE9003413460A460146FFF7A7FF04B03B
:102B700010BD30B585B0BDF9245004460295089DBE
:102B8000CDE9003513460A4600F5FA71FFF796FFC6
:102B900005462046FFF7E2FE284605B030BDF7B5F2
:102BA000B1F801700646A7F50053012B0C4624D856
:102BB000C878162849D842F201039F4201D1FEF796
:102BC0000BFF2378402B11D16168FEF7BDFE70BB6F
:102BD0002323237008232246304696F8501501F52A
:102BE000B06103B0BDE8F040FFF7E4BD222BF1D1A6
:102BF000FEF7C2FE43236060EBE7A7F54053B3F551
:102C0000C05F22D2C97816291FD82378402BE1D182
:102C10006568C7F30A02C5F3072CEBB22D14CDE9A2
:102C200000C57D040ED5FFF7A4FF0028D0DA80236D
:102C3000237030232371002363710923A3710623BA
:102C4000E371C7E7FFF787FFEFE7802323700023D7
:102C5000237163710223F1E72DE9F04705460E4623
:102C60004FF001088AB0002305930DF11A03039376
:102C70000DF11B0302930DF11903019308AC06AB90
:102C8000009304940122D5F84C0507ABF1B201F092
:102C9000DFF810B90AB0BDE8F08795F85035079A0B
:102CA00003F5C063934208D19DF81A30082B04D174
:102CB00021462846FFF773FFD5E7284605F5FA7148
:102CC000FFF7F0FEA8B300F1020900F1080414F9BF
:102CD000013C2746002B24DD14F8021C08FA03F3FC
:102CE0001F2903F1FF328ABF099B089B2039CB4083
:102CF00034F904AC13405B0114F8060C03FB0AFA28
:102D0000FEF782FE03464FEA6A1A514614F8060C93
:102D100063B1FEF719FEA7EB09072A2F04F1060499
:102D2000D5DD01F067FCC5F8E8039CE7FEF73AFE45
:102D3000F1E721461046D5F83035984793E72DE95D
:102D4000F041002488461F462646151FBC4202DB80
:102D50003046BDE8F08155F8040F01F0DDF8296830
:102D6000064608EB840001F01FFA0134EEE700206C
:102D70002DE9F04F054685B0039301F132044FF67B
:102D8000FF7334F832CC01949C4536D032230027AF
:102D90004FF0010803FB05FEA4F1300A02EB0E0917
:102DA000A4F12A0313F901BC0293BBF1000F18DD53
:102DB00033F806BC039EB34522D0062606FB0798CF
:102DC00053F806BC0137C8F802B033F802BCA8F8C3
:102DD00006B04FF00008029E0633A6EB0A062A2E24
:102DE000E0DDB8F1000F02D122F80EC00135019BE1
:102DF00032345B1AB3F5E17FC1DD05B0BDE8F08F79
:102E00000130E8E7F0B5044616460D46FFB001A9CB
:102E1000FFF724FE3346294601AA2046FFF7A7FF05
:102E200007462046FFF71AFE33462A46204601A9E8
:102E3000FFF79DFF38467FB0F0BD70B50A460D46DE
:102E400001460446FFF7DEFF2A46064604F5FA71FE
:102E50002046FFF7D7FF304470BD2DE9F0470E46FE
:102E60004FF6FF7A01F1320434F8323C27465345DD
:102E70001CD0A4F13009A4F12A0515F9013CA8469B
:102E8000002B0DDD15F8060CFEF7B6FDA8EB0908C2
:102E90008369B8F12A0F25F8063C05F10605ECDD3B
:102EA000BF1BB7F5E17F04F13204DDDDBDE8F0873B
:102EB0002DE9F0470E464FF6FF7901F1320434F860
:102EC000323C27464B451BD0A4F1300AA4F12A0519
:102ED00015F9013CA846002B0CDD35F8060CFEF771
:102EE0007BFDA8EB0A08B8F12A0F25F8060C05F1BE
:102EF0000605EDDDBF1BB7F5E17F04F13204DEDD31
:102F0000BDE8F08773B504461A4E00F0FDFF01F0EE
:102F100031F9022001F024F9304601F0E1F804F51E
:102F2000FA7521462046FFF798FF29462046FFF70D
:102F300094FF224631467D232046FFF700FF2A46B4
:102F40007D2320460C49FFF7FAFE012301AA0B4915
:102F500001902046FFF7F3FE01F018F921462046C4
:102F6000FFF7A6FF2946204602B0BDE87040FFF7F4
:102F70009FBF00BF00F80008F4F90008E8FB000854
:102F800038B5124B0446D3F8E85B00F0BDFFFA21D8
:102F90000F4800F0C7FF854215D17D2220460C491D
:102FA00004F5FA75FFF762F87D2228460949FFF714
:102FB0005DF821462046FFF77BFF20462946FFF7B4
:102FC00077FF012038BD0020FCE700BF00F00008BB
:102FD00000F80008F4F90008F8B5002504460E468C
:102FE000434BC0F84C15C0F83035C0F8E853C0F872
:102FF0002C55C0F848551746FFF745FD2046FFF70A
:10300000BFFF3C4B9E421DD003F580639E4244D0DF
:103010000123D4F84C0584F8503500F09BFD394667
:103020002046FFF7A9FB2046FFF798FCD4F84C0593
:10303000022100F08DFED4F84C05102100F088FE2E
:103040002046F8BD4FF40063022229462A4801F0C9
:10305000B7F84FF40061284801F0E7F84FF48053C7
:1030600002220321244801F0ABF8142001F03CFDBA
:10307000F021142001F044FD152001F035FDF02170
:10308000152001F03DFD132001F02EFDF02113204D
:1030900001F036FD194B1C60BAE74FF48053022251
:1030A0002946174801F08CF84FF48051144801F07C
:1030B000BCF84FF4005302220321114801F080F8BC
:1030C000402001F011FDF021402001F019FD4120C8
:1030D00001F00AFDF021412001F012FD3F2001F036
:1030E00003FDF0213F2001F00BFD044B5C608FE7F6
:1030F000F126000800640040000801409C03002005
:10310000000C0140024B00211868FFF7A5BD00BF6D
:103110009C030020024B01211868FFF79DBD00BFF2
:103120009C030020014B1868FFF7C6BB9C030020DE
:10313000024B00215868FFF78FBD00BF9C030020A1
:10314000024B01215868FFF787BD00BF9C03002098
:10315000014B5868FFF7B0BB9C0300202DE9F043FA
:1031600085B00D469DF8349016461F46FEF744FC88
:103170000E4CD0F804800E492068FFF755F9B9F1DC
:10318000000F10D00B492068FFF74EF90C9B0096FA
:10319000CDE9017342462B4607492068FFF744F901
:1031A00005B0BDE8F0830549EDE700BFA4030020AA
:1031B0000C4F0008114F0008194F0008154F000868
:1031C00070B504460846FEF727FF20210546FEF7A6
:1031D000D7FE03782BB910492046BDE87040FFF7B1
:1031E00023B90023052100F8013BFEF7ABFF06469B
:1031F0002846FEF7DDFB182807D03146FEF7A4FB72
:1032000008B90649E8E70649E6E72A462046BDE848
:1032100070400449FFF708B92A4F0008454F0008DD
:103220004E4F0008634F00082DE9F8430646084654
:10323000FEF7F2FE0446DFF84480DFF844902C21CC
:103240002046FEF79DFE00230778054603702046C2
:10325000FEF7AEFB18280DD0FEF78EFB494602465E
:103260002C463046FFF7E0F82C2F04F8017BE6D01F
:10327000BDE8F88322464146F2E700BF7F4F0008D1
:103280007A4F0008F8B505460846FEF7C5FE20212E
:103290000746FEF775FE037804462BB91949284600
:1032A000BDE8F840FFF7C0B8002303703846FEF7CA
:1032B0007FFB182806461ED06378212B0AD07E2B70
:1032C00008D02F2B06D01048611CFEF73BFE68B1DA
:1032D0000E49E4E70C48A11CFEF734FE0028F7D1A4
:1032E00001213046FEF7BCFB0949D8E701213046F1
:1032F000FEF7AEFBF8E73A462846BDE8F840054938
:10330000FFF792B8994F0008A94F0008B04F000886
:10331000BF4F0008634F00082DE9F04F044687B007
:103320000846FEF779FE0546FEF75DFE20210646BB
:103330002846FEF725FE037833B92046364907B004
:10334000BDE8F04FFFF770B84FF00008C146DFF856
:10335000CCA0451C2C212846FEF712FE074690F80B
:1033600000B080F800902846FEF722FB3D46182862
:1033700005F801BB13D008F118036B4403F80C0CDB
:103380003B7808F101082C2B11D02046FEF7D8FB22
:103390002046FEF7D1FB80B307B0BDE8F08F514661
:1033A0002046FFF741F83B782C2BD3D0EDE7B8F15E
:1033B0000A0FCFD1E9E71BF805000192FEF7DCFA0E
:1033C000019A034639462046FFF72EF84A46013552
:1033D0004545F0D120461249FFF726F8721C04D16A
:1033E0002046FEF7A9FB88B1D6E72046013EFEF74E
:1033F000A3FB0028D0D14EB9CEE7002E01DC731C10
:10340000CAD1DFF820A0084FDFF8209052460025EF
:103410000DF10C0BDCE700BFD04F0008EF4F0008A8
:10342000964F0008984F000803500008B44E00085B
:103430002DE9F04F04468DB00846FEF7EDFD364904
:1034400090F800902046FEF7EFFF00264FF020088E
:10345000DFF8C8A0DFF8C8B0F7B23846FEF7CCFAFC
:1034600005463846FEF704FBC30702D5B9F1680FDD
:1034700042D16B68AA68384605930492FEF77CFA3D
:10348000049A059B27490190009220464246FEF788
:10349000CBFF0020FFF706FA0DF11F0302930BABE1
:1034A00001930AAB0093394609AB08AAFFF724F948
:1034B00088B19DF81F101C4A1C4B2046002918BFDC
:1034C000134602930B9B1A4901930A9B0093DDE973
:1034D0000823FEF7A9FF3846FEF796FAB0B1029628
:1034E0002B68594601936B6920460093D5E9032365
:1034F000FEF79AFF4FF02C080136172EACD120466C
:103500000C490DB0BDE8F04FFEF78EBF5146204686
:10351000FEF78AFFEEE700BF13500008CA5000080C
:103520007C50000815500008085000080D50000895
:103530003B500008DB5000082DE9F043044687B0FB
:103540000846FEF769FD90F80090B9F1700F0CD1B4
:103550005E4D00202C60FFF7A5F95D49FFF760F98B
:1035600000232B6007B0BDE8F083B9F1630F0BD1E6
:103570000020FFF797F9FFF786FA5649204607B073
:10358000BDE8F043FEF750BF2021FEF7F9FC0378B9
:103590000BB95149F2E7FEF73FFD20210746FEF740
:1035A000EFFC0378064613B9B9F1640FF1D1002599
:1035B000384606F8015BFEF7FBF907463046FEF792
:1035C0002BFD182F064601D14449D7E7B9F1640F06
:1035D0001DD12846FFF766F93946FFF72EFC024653
:1035E0003F49204607B0BDE8F043FEF71DBF00236A
:1035F00003703046FEF7F7FC032D15D002AB43F8FD
:10360000250008F10100FEF707FD064601352021DF
:103610003046FEF7B5FC03788046002BE7D1032D3A
:10362000B7D13046FEF7DFFC30BB10213046FEF745
:1036300089FD4FF4001393FBF0F3059308F10100AB
:10364000FEF7EAFCB9F1740F4FF0000016D1FFF756
:1036500029F9BDF9143039460193049B0093DDE943
:103660000223FFF778FA431D0246042B21D8DFE836
:1036700003F01B1E181512000590DFE7FFF712F983
:10368000BDF9143039460193049B0093DDE9022310
:10369000FFF76FFAE7E7029A1249A2E7039A124985
:1036A0009FE7049A11499CE7029A114999E7114949
:1036B00064E71149114B0128C8BF0B462046104949
:1036C00007B0BDE8F043FEF7AFBE00BFA403002083
:1036D0005D310008E150000803510008EF4F000879
:1036E000165100082B5100083F51000853510008A3
:1036F000675100088F510008A34B0008984F00083D
:10370000AB51000810B50446FEF746FF07490246D4
:103710002046FEF789FE0020FFF7C4F8FFF7F2FB12
:103720002046BDE810400249FEF77EBED551000894
:10373000F151000810B50446FEF77AFF38B9FDF7DD
:1037400083FE04492046BDE81040FEF76DBE0249E5
:10375000F8E700BF015200081552000808B501F053
:10376000BBF90000C278014B1A707047BD030020FE
:103770000368084A03F003011170074A190A11800F
:10378000064A1B0E13704368054AC3F305231370E2
:10379000704700BFBE030020B4030020B203002026
:1037A000B1030020044B187028B9044B1860044B77
:1037B0001860044B18607047C2030020B803002053
:1037C000AC030020A8030020084B094A1B7898424C
:1037D00028BF1846074B18701368984202D9013366
:1037E00013607047FDD2013BFAE700BFBD03002024
:1037F000B8030020BC0300202DE9F3414FF000087E
:103800000446274B274F1D68274B0A2D1E6894BF7F
:1038100000250125322E94BF002601263B886A46EA
:103820000A3343F4480301934FF480710823CDF821
:103830000080FEF7BFFF1D4B6A462046CDE90038E9
:1038400040F201110823FEF7B5FF194B4FF48171C7
:103850001A68184B20461B7843EA02633A8843EA09
:1038600002230093144B1A78144B1B785B0243EA33
:103870000223134A43EA0613127843EA8223114AC9
:10388000127843EAC22343EA850343F4C803019351
:103890006A460823FEF78EFF02B0BDE8F08100BF44
:1038A000A8030020B6030020AC03002000FFFE00A8
:1038B000B8030020BE030020C2030020C103002083
:1038C000C0030020BF030020024B00BF013BFCD11E
:1038D000704700BF00127A00D0F80220014B1A6036
:1038E000704700BFE0030020D0F80220014B1A60AF
:1038F000704700BFD0030020D0F80220014B1A60AF
:10390000704700BFCC030020D0F80220014B1A60A2
:10391000704700BFC8030020054A13880133138095
:103920000A224388B3FBF2F3024A1380704700BFB8
:10393000E4030020C4030020D0F80220014B1A60E9
:10394000704700BFD8030020D0F80220014B1A6056
:10395000704700BFDC030020D0F80220014B1A6042
:10396000704700BFD403002007B50020064BCDE907
:103970000030FEF797FF08236A4640F21141FEF738
:1039800019FF03B05DF804FB3400010007B53223D2
:103990000020CDE90030FEF785FF08236A4640F29B
:1039A0001141FEF707FF03B05DF804FB07B50020E7
:1039B000064BCDE90030FEF775FF08236A4640F25A
:1039C0001141FEF7F7FE03B05DF804FB340101007E
:1039D000F7B50025144B20241D704227FFF7C4FFC4
:1039E0004FF4C846FFF770FF8DF800400020013407
:1039F0008DF80170ADF802600195E4B2FEF752FF58
:103A000008236A4640F21141FEF7D4FEFFF75CFF3F
:103A1000FFF7BCFFFFF758FF292CE5D1FFF7C6FFE2
:103A2000FFF752FF03B0F0BD040300208368DB07FB
:103A30005EBF836843F00103836070478368DB07E0
:103A400042BF836843F0010383607047836800F1DD
:103A5000080243F00803836013681B07FCD4704717
:103A6000836843F00403836070478068C0F380007C
:103A7000704708B50246FFF7F3FF1046FFF7F5FF62
:103A80000028FAD108BD0022134610B501FA02F44D
:103A900003321E2A43EA0403F8D10022036101FA2B
:103AA00002F40332182A43EA0403F8D1C36010BDBC
:103AB000836823F0010383607047436843F4807395
:103AC00043607047836823F40063836070478368B2
:103AD00043F00203836070471029F0B510D800232B
:103AE0004FF0010E1F469C461D465FFA8EF68E4231
:103AF00007D9013945EA0155C562C0F830C04763AE
:103B0000F0BDBEF1060F147806D89C4027430EF195
:103B1000010E01320533E8E7073E052E8BBFA3F106
:103B20003C06A3F11E06B440B4408CBF25434CEACA
:103B3000040CECE7836800F1080243F4800383601F
:103B400013685B02FCD47047836843F4807383601E
:103B500070470000044B98420CBF40F2192040F21D
:103B60001A2000F0D2BC00BF006400402DE9F341F0
:103B70000468884624F0020404600468964644F011
:103B8000010404604FF6FF749DF820C09DF82410D6
:103B90009DF828209DF83C609DF840700194019CA0
:103BA000051D013C019414B14468E407F7D544684D
:103BB000E4076ED50024C4610468B8F1000F4FD04B
:103BC00044F0800404600468BEF1000F4BD044F060
:103BD00040040460002B49D0036843F020030360D5
:103BE0000368BCF1000F45D043F010030360036885
:103BF000002942D043F0080303600368002A3FD045
:103C000043F004030360C369002F3CD043F000433A
:103C1000C361C369002E39D043F08043C3610E9B5A
:103C20000D99013BC3F309030B430C99C2690B4384
:103C30000B990B431343C361036823F00103036033
:103C40004FF6FF730193019B013B019313B12B6866
:103C5000DB07F8D4406800F0010002B0BDE8F08155
:103C600024F08004AEE724F04004B2E7036823F0B8
:103C70002003B4E723F01003B8E723F00803BBE701
:103C800023F00403BEE723F00043C1E723F08043A1
:103C9000C4E70120E1E70000F0B50125234C9DF8C1
:103CA0001C70D4F80066854046F00106C4F8006632
:103CB000D4F81CE6EE432EEA050EC4F81CE639B330
:103CC000D4F80C162943C4F80C162AB3D4F80426E9
:103CD0002A4300F1006000F6C840C4F80426C00082
:103CE0000360069A059B4360104BCAB1D3F81426B3
:103CF0002A43C3F8142627B1D3F81C262A43C3F855
:103D00001C26D3F8002622F00102C3F80026F0BDDD
:103D1000D4F80C163140D6E7D4F804263240D8E760
:103D2000D3F814261640C3F81466E4E70060004098
:103D300030B4BDF808409DF8105044EA034404959F
:103D400042EA01430294012230BC0021FFF7A4BFE4
:103D500043690B4343617047436923EA01034361AD
:103D600070472DE9F041804680689DF818E04501D4
:103D7000079E2AD4D8F8080004012AD4D8F80800ED
:103D8000C00050D54FF4D075022005EB080422B3D3
:103D9000C90041F0040145F808101BB1236843F045
:103DA00002032360636823F00F03636062680EF010
:103DB0000F03134363600EF1FF33072B2AD8DFE8AC
:103DC00003F02623201B1815120E4FF4C075002097
:103DD000DBE74FF4C8750120D7E74905DBE700278B
:103DE000F37963F31F67B37963F31747737963F369
:103DF0000F27337963F307074FF0000CF37863F371
:103E00001F6CB37863F3174C737863F30F2C33781C
:103E100063F3070CC4F808C0E760236843F00103AC
:103E20002360BDE8F0814FF0FF30FAE721B9C368A5
:103E300043F02003C3607047036943F0200303612C
:103E4000704719B9C06800F0030070470069FAE7CD
:103E50002DE9F743DDF828900446DDE90E56FFF71B
:103E6000F0FF0F4680464FF4E0714FF4D870CDE973
:103E7000000102A901EB870151F808CC54F80C109D
:103E800004EB0C0011F0040115BF012189F80010AA
:103E900089F8001054F80C1016BF54F80C10490D96
:103EA000C908196054F80C100B9BC1F3400119703C
:103EB00041680C9B090A197041680D9B01F00F01C4
:103EC000197016B143681B0C33808668C368C6F34B
:103ED00007216970C6F30741A970C3F307212E704B
:103EE0002B71C6F307666971C3F30741C3F3076318
:103EF000EE70A971EB711AB139462046FFF796FFB3
:103F0000404603B0BDE8F083024A936843F00103E2
:103F10009360704700300240014B1860186870478A
:103F200000300240002310B5044A8B4201DB1068C8
:103F300010BD50F8234001331460F6E70030024012
:103F400014230022013903FB01039A60DA601A612D
:103F50005A610F23426889008B40134343607047C6
:103F6000013989008A40426070470139036889003D
:103F70008A401A4214BF01200020704714230139DF
:103F8000594308300B5823F440630B500B5813432C
:103F90000B50704714230139594308300B5823F450
:103FA00040730B500B5813430B50704714230139C7
:103FB000594308300B5843F080030B5070471423CB
:103FC0000139594308300B5843F020030B500B586C
:103FD00023F480430B5070471423013959430830B0
:103FE0000B5843F010030B50704714230139594309
:103FF00008300B5843F001030B507047142301396C
:10400000594308300B5823F001030B507047142319
:10401000013903FB01008368DB0758BF0261704769
:104020001423013903FB01008368DB0758BF426199
:1040300070471423013959430C30085880B2704737
:104040001423013959430C300A50704738B5064DD6
:10405000EC6800F065FDB0F5007F84BFEB6C1C439D
:1040600004F0350038BD00BF0020024038B50446DA
:104070000D4600F093F800F053FDB0F5007F164BAD
:1040800014D9164A944211D91A6D42F001021A65E8
:10409000258000F083F800F043FDB0F5007F14D9CF
:1040A0000D4A136D23F00103136538BD1A6942F000
:1040B00001021A61258000F071F800F031FDB0F5C1
:1040C000007F02D9054B9C42E9E7034A136923F0BC
:1040D00001031361E9E700BF00200240FFFF07086A
:1040E00010B5044600F05AF800F01AFDB0F5007F54
:1040F000194B18D9194A944215D91A6D42F0020287
:104100001A655C651A6D42F040021A6500F046F8C7
:1041100000F006FDB0F5007F18D90F4A136D23F0AB
:104120000203136510BD1A6942F002021A615C6154
:104130001A6942F040021A6100F030F800F0F0FC19
:10414000B0F5007F02D9054B9C42E5E7024A1369AE
:1041500023F002031361E5E700200240FFFF070898
:10416000034A136823F0070303431360704700BF3B
:1041700000200240034B044A5A6002F188325A6020
:10418000704700BF0020024023016745024A1369BF
:1041900043F08003136170470020024008B5FFF729
:1041A00055FFC307FBD408BD38B505460C4689B298
:1041B000FFF75CFF210CA81CBDE83840FFF756BF95
:1041C0002DE9F04300264FF00F089C46036847682E
:1041D0004CFA06F414F0010F06F1010E1DD0072E63
:1041E00094BF9946B946B4B24FEA84048ABF203CD2
:1041F000A4B2A4B208FA04F529EA0509A51C02FA3A
:1042000005F501FA04F42C43072E44EA090405D805
:10421000234676463C462746DAE73C467646102E4D
:10422000F9D103604460BDE8F0830161704709047F
:1042300001617047806808407047C36801EA030263
:1042400021EA030141EA0241016170474AF6AA22CC
:10425000014B1A60704700BF00300040062824D888
:10426000DFE800F004090E13181D2000104B186839
:10427000C0F3406070470E4B1868C0F3C0607047D1
:104280000B4B1868C0F340707047094B1868C0F3B7
:1042900040407047064B1868C0F340007047044B1D
:1042A000186AF9E7024B586AF6E70020704700BF2A
:1042B00000100240024608B51046FFF7CFFF002865
:1042C000FAD008BD06282AD8DFE800F0040A0F1447
:1042D000191E2400124A136843F08073136070475C
:1042E0000F4A136843F08063F8E70D4A136843F000
:1042F0008053F3E70A4A136843F48033EEE7084A31
:10430000136843F00103E9E7054A136A43F0010328
:1043100013627047024A536A43F0010353627047C5
:1043200000100240034A536823F003030343536021
:10433000704700BF00100240034A536823F4701313
:1043400043EA80435360704700100240034A5368B9
:1043500023F4803343EA0043536070470010024067
:10436000034A536823F4003343EA404353607047E1
:1043700000100240024B186A00F40040704700BF72
:1043800000100240024A136A43F40043136270476C
:104390000010024006283BD8DFE800F0353535250F
:1043A000350415001B4B1A6A42F001021A621A6AA0
:1043B0009007FCD51A6A22F440721A621A6A42F413
:1043C00080721A627047134B5A6A42F001025A62B5
:1043D0005A6A9107FCD51A6A22F440721A621A6A64
:1043E00042F40072EDE70B4B1A6842F480321A6017
:1043F0001A689203FCD51A6A22F440721A621A6A89
:1044000042F44072DDE7034A136A23F440731362F7
:10441000704700BF00100240034A536823F4404332
:1044200043EA80335360704700100240034A5368E8
:1044300023F4605343EAC0235360704700100240E6
:10444000034A536823F4E06343EA00235360704750
:1044500000100240034A536823F0F00343EA0013BC
:10446000536070470010024008B50420FFF72AFF90
:10447000FFF720FF0020FFF755FF0320FFF722FF83
:10448000FFF718FF0120FFF74DFF0020FFF7E2FFC5
:104490000320FFF7C1FF0420FFF7D2FF0020FFF742
:1044A000C5FF0220FFF75CFE0720FFF745FF012054
:1044B000FFF74CFF0020FFF753FFFFF703FFFFF765
:1044C000F9FE0220FFF72EFF044B054A0549136051
:1044D000054A1160054A136008BD00BF00A24A04E6
:1044E0000803002000512502100300200C030020C7
:1044F0000122430903F1804303F50433196800F0F6
:104500001F0082400A431A6070470122430903F1E9
:10451000804303F50433196800F01F008240114303
:104520001960196821EA02021A607047054BD3F836
:1045300004289206FBD5D3F8042842F01002C3F8F1
:104540000428704700200040054BD3F8042822F0CF
:104550001002C3F80428D3F804289206FBD570474C
:104560000020004038B5044600254FF46770FFF77F
:10457000BFFF40F29B30FFF7BBFF00F0D7FA2046A9
:10458000124CFFF707FFC4F80058C4F80458FFF7AF
:10459000F9FEFFF7CBFF4FF6FF73C4F80858C4F8D5
:1045A0000C58C4F81858C4F81C58C4F82038C4F87B
:1045B0002438FFF7C9FFD4F8043823F00803C4F8FF
:1045C0000438D4F804381B07FBD538BD0020004060
:1045D00008B5FFF7ABFF064B82B2C0F30340C3F848
:1045E0000C28C3F80808BDE80840FFF7ADBF00BFBE
:1045F00000200040034BD3F81808D3F81C3843EAD6
:10460000004070470020004008B5FFF78FFF054BC2
:10461000020C80B2C3F81828C3F81C08BDE8084093
:10462000FFF792BF0020004008B54FF46770FFF716
:104630005FFF40F29B30FFF75BFF00F077FA084B1B
:10464000D3F8042822F00802C3F80428D3F8042879
:104650001107FBD5D3F804289206FBD508BD00BF8F
:104660000020004038B505464FF467700C46FFF750
:104670003FFF40F29B30FFF73BFFFFF77BFE18B197
:10468000BDE83840FFF7D0BF2846FFF76BFF204654
:10469000BDE83840FFF79CBFC3680B43C360704759
:1046A00003690B4214BF012000207047C943016118
:1046B0007047036843F0800303607047036801F0AC
:1046C000600123F0600303600368194301607047D1
:1046D000036823F0100303607047036843F001038D
:1046E00003607047036823F0010303607047816231
:1046F0007047C162704706297AD8DFE801F0047973
:10470000337963799200836923F0030383618369BA
:104710008361836923F070038361072A68D8DFE827
:1047200002F03304090D1115191D836943F01003BC
:1047300083617047836943F02003F9E7836943F09D
:104740003003F5E7836943F04003F1E7836943F001
:104750005003EDE7836943F06003E9E7836943F0C1
:104760007003E5E7836923F44073836183698361A0
:10477000836923F4E0438361072A39D8DFE802F034
:1047800004060A0E12161A1E8369D1E7836943F4E0
:104790008053CDE7836943F40053C9E7836943F449
:1047A0004053C5E7836943F48043C1E7836943F419
:1047B000A043BDE7836943F4C043B9E7836943F489
:1047C000E043B5E7C36923F00303C361C369C36171
:1047D000C36923F07003C361072A09D8DFE802F038
:1047E0003304090D1115191DC36943F01003C3618A
:1047F0007047C36943F02003F9E7C36943F030030E
:10480000F5E7C36943F04003F1E7C36943F05003A0
:10481000EDE7C36943F06003E9E7C36943F0700360
:10482000E5E7C36923F44073C361C369C361C36926
:1048300023F4E043C361072ADAD8DFE802F0040674
:104840000A0E12161A1EC369D1E7C36943F48053D6
:10485000CDE7C36943F40053C9E7C36943F4405348
:10486000C5E7C36943F48043C1E7C36943F4A04388
:10487000BDE7C36943F4C043B9E7C36943F4E04308
:10488000B5E7062912D8DFE801F0041109110D116E
:104890001200836943F0080383617047836943F41E
:1048A0000063F9E7C36943F00803C3617047C36954
:1048B00043F40063F9E7062909D8DFE801F004159D
:1048C00009190D1D1100036A23F0020303627047EA
:1048D000036A23F02003F9E7036A23F40073F5E782
:1048E000036A23F40053F1E7036A23F00803EDE7BA
:1048F000036A23F08003E9E7036A23F40063E5E732
:10490000062909D8DFE801F0041509190D1D110069
:10491000036A43F0010303627047036A43F0100324
:10492000F9E7036A43F48073F5E7036A43F48053BD
:10493000F1E7036A43F00403EDE7036A43F0400341
:10494000E9E7036A43F48063E5E706290CD8DFE86A
:1049500001F0040B060B080B0A00426370478263E8
:104960007047C26370470264704743690B434361F9
:104970007047406A7047416270470000064A074B23
:1049800090421B6804BF064B1B6803EB5103B3FB4B
:10499000F1F18160704700BF003801401003002032
:1049A0000C030020C36808290CBF23F4805343F490
:1049B0008053C3607047036923F440530B43036182
:1049C0007047C36823F4C0630B43C3607047C36878
:1049D00023F00C030B43C3607047436923F4407317
:1049E0000B4343617047C36843F40053C36070478F
:1049F00038B504460D4600F018F829462046BDE8B3
:104A0000384000F00AB8436943F0400343617047FF
:104A1000436943F0800343617047C1F3080141607B
:104A200070474068C0F30800704703681B06FCD558
:104A3000704703680B4214BF012000207047FEE757
:104A40007047000038B51A4A1A4B1B498B421AD3DB
:104A500000211A4A93421BD34FF0E022D2F8143DB2
:104A6000174C43F40073174DC2F8143DAC4212D3F7
:104A7000154C164DAC4212D3FCF7EEFC144C154D00
:104A8000AC4210D338BD52F8040B43F8040BDDE7F9
:104A900043F8041BDEE754F8043B9847E6E754F874
:104AA000043B9847E6E754F8043B9847E8E700BF23
:104AB000345200080000002014030020E803002006
:104AC0002C5200082C5200082C52000834520008C6
:104AD00034520008345200084FF0E023014AC3F872
:104AE0000C2DFEE70400FA05012243099B0003F1A7
:104AF000604300F01F0003F5614382401A60704775
:104B0000432893BF00F16040044B00F00F0000F514
:104B100064408CBFC1540170704700BF14ED00E0C9
:104B2000014BB3F8E007704700F0FF1F024A13681B
:104B300043F4807313607047007000400002040665
:104B4000506F776572204C696D697400636861729B
:104B50006765746172676574004100736F636C69A7
:104B60006D69740025006368617267656C696D69C1
:104B700074007564637461726765740056004368FD
:104B80006164656D6F20696E70757420636F6E6609
:104B90006967006375727265715F64656C61790045
:104BA00031306D730069676E6F72655F7374617227
:104BB000743200303D4F66662C20313D4F6E004907
:104BC0005341205368756E7420436F6E74726F6C1E
:104BD000004953415F494E4954006F706D6F6465E1
:104BE00000303D4F66662C20313D43686172676539
:104BF00053746172742C20323D436F6E6E65637422
:104C00006F724C6F636B2C20333D43686172676534
:104C10002C20343D43686172676553746F70006384
:104C2000646D73746174757300313D4368617267BC
:104C3000696E672C20323D4D616C66756E637469D8
:104C40006F6E2C20343D436F6E6E4C6F636B2C2067
:104C5000383D426174496E636F6D702C2031363D72
:104C600053797374656D4D616C66756E6374696FAD
:104C70006E2C2033323D53746F7000766572736909
:104C80006F6E00343D312E312E522D434844006367
:104C900070756C6F616400736F6300626174667538
:104CA0006C6C0063646D6375726571006964636345
:104CB000646D0075646363646D00756463626D7335
:104CC000006C61737465727200746D706973610059
:104CD000C2B0430049736149646300706F776572C5
:104CE000006B77004B576800414D506800416800E9
:104CF000426175642072617465206E6F772039326D
:104D0000313630300D0A00656E61626C6575617216
:104D10007400666173747561727400556E6B6E6FAA
:104D2000776E20636F6D6D616E642073657175655C
:104D30006E63650D0A000000000000000000000026
:104D4000911A0008003801400405000000080140E5
:104D500000020000000C0140400000000044004040
:104D60000706000000080140040000000014014094
:104D7000200000000048004002030000000C014039
:104D800000040000001001400004000025582558D0
:104D900025580D0A0044656661756C7473206C6F4C
:104DA000616465640D0A00666C6167007374726506
:104DB000616D006A736F6E0063616E00736176658A
:104DC0000072657365740064656661756C74730068
:104DD00068656C700073657269616C006572726FF2
:104DE00072730000C34D0008C1310008784B000801
:104DF00029320008A74D000885320008AC4D000894
:104E000019330008B34D000831340008B84D0008CC
:104E100039350008BC4D000805370008924C0008E1
:104E200035370008C14D00085D370008C74D000840
:104E30002D1F0008D04D0008FD1E0008D54D0008AC
:104E4000051F0008DC4D0008FF1E000800000000E0
:104E5000000000000100000002010000000000034B
:104E6000286E756C6C290000000000000000000036
:104E7000E32200085B25755D3A202573202D20254F
:104E8000730D0A004E6F204572726F72730D0A0027
:104E900053544F5000444552415445005741524EDF
:104EA00000303D4E4F4E452C20313D544553544526
:104EB00052524F522C00544553544552524F5200B7
:104EC000904E0008954E00089C4E0008984F000830
:104ED00003000000B64E00080000000000000800BB
:104EE0000000500009000000000003000000200046
:104EF0000900000000000400000020000500000080
:104F000000000500000040000300000063616E2007
:104F100000727820007478200025732025642025F5
:104F2000642025642025640D0A004E6F2070617294
:104F3000616D657465722076616C75652067697650
:104F4000656E0D0A00536574204F4B0D0A005661C3
:104F50006C7565206F7574206F662072616E676571
:104F60000D0A00556E6B6E6F776E20706172616D09
:104F7000657465722025730D0A0025660D0A0055BB
:104F80006E6B6E6F776E20706172616D65746572A5
:104F90003A20272573270D0A004E6F20666C616743
:104FA00020676976656E0D0A0068696464656E0045
:104FB000556E6B6E6F776E20666C61670D0A0046EA
:104FC0006C6167206368616E6765204F4B0D0A0056
:104FD00055736167653A2073747265616D206E2048
:104FE00076616C312C76616C322E2E2E0D0A0055B6
:104FF0006E6B6E6F776E20706172616D6574657235
:105000000D0A002573256600747275650066616C73
:105010007365007B0025630D0A2020202225732262
:105020003A207B22756E6974223A222573222C2243
:1050300076616C7565223A25662C002263616E6983
:1050400064223A25642C2263616E6F666673657410
:10505000223A25642C2263616E6C656E6774682247
:105060003A25642C2263616E6761696E223A256479
:105070002C2269737278223A25732C00226973708E
:105080006172616D223A747275652C226D696E6968
:105090006D756D223A25662C226D6178696D756D8E
:1050A000223A25662C2264656661756C74223A2565
:1050B000662C2263617465676F7279223A222573C8
:1050C000222C2269223A25647D0022697370617264
:1050D000616D223A66616C73657D000D0A7D0D0A73
:1050E00000416C6C206D6573736167652064656653
:1050F000696E6974696F6E7320636C656172656453
:105100000D0A004D697373696E6720617267756D72
:10511000656E740D0A00256420656E74726965738E
:105120002072656D6F7665640D0A00496E76616C5C
:1051300069642043414E2049642025780D0A0049C6
:105140006E76616C6964204F6666736574202564B1
:105150000D0A00496E76616C6964206C656E677437
:10516000682025640D0A0043616E6E6F74206D61C6
:105170007020616E796D6F7265206974656D732042
:10518000746F2043414E2069642025640D0A004D50
:105190006178206D65737361676520636F756E74E8
:1051A00020726561636865640D0A0043414E206D9D
:1051B0006170207375636365737366756C2C20254D
:1051C00064206D657373616765257320616374691D
:1051D00076650D0A00506172616D657465727320A9
:1051E00073746F7265642C204352433D25780D0A19
:1051F0000043414E4D41502073746F7265640D0A37
:1052000000506172616D6574657273206C6F6164CA
:1052100065640D0A00506172616D657465722043AA
:0C5220005243206572726F720D0A00008C
:08522C007D1A00088925000825
:1052340020030000800C0000A00F0000802F00005D
:10524400000000000000000000000000000000005A
:10525400000000000000000000000000000000004A
:10526400000000000000000000000000000000003A
:10527400000000000000000000000000000000002A
:10528400000000000000000000000000404B000887
:105294004C4B0008594B000800000000A00F000010
:1052A400200300000A000000404B00085B4B00088C
:1052B400644B000800000000800C0000800C00001B
:1052C4000C000000404B0008664B0008594B0008D6
:1052D40000000000A00F0000A00F00001208000052
:1052E400404B0008724B00087C4B00080000000093
:1052F400803E0000802F00005C0000007E4B000810
:10530400934B0008A04B000800000000003200008E
:1053140000000000DA0700007E4B0008A54B0008DF
:10532400B34B000800000000200000000000000053
:10533400DB070000BF4B0008D14B0008B34B00084B
:105344000000000020000000000000004B000000EE
:1053540000000000DA4B0008E14B000800000000E8
:105364000000000000000000D00700000000000062
:105374001F4C0008294C0008000000000000000039
:105384000000000016080000000000007B4C00082C
:10539400834C000800000000000000000000000032
:1053A400D1070000000000008F4C0008644B000887
:1053B400000000000000000000000000D40700000E
:1053C40000000000974C0008644B00080000000037
:1053D40000000000000000000408000000000000BD
:1053E4009B4C0008B34B00080000000000000000C4
:1053F400000000001508000000000000A34C000895
:10540400594B0008000000000000000000000000EC
:105414001C08000000000000AC4C0008594B0008B8
:10542400000000000000000000000000130800005D
:1054340000000000B34C00087C4B00080000000092
:10544400000000000000000014080000000000003C
:10545400BA4C00087C4B000800000000000000006B
:10546400000000000008000000000000C14C00081B
:105474000000000000000000000000000000000028
:10548400D207000000000000C94C0008D04C0008FE
:10549400000000000000000000000000D50700002C
:1054A40000000000D44C0008594B00080000000024
:1054B4000000000000000000D6070000000000000B
:1054C400DB4C0008E14C0008000000000000000074
:1054D40000000000D707000000000000E44C0008B2
:1054E400E44C000800000000000000000000000080
:1054F400D807000000000000E84C0008ED4C00084C
:10550400000000000000000000000000D9070000B7
:105514000200000000000000000000000000000085
:105524000000000000000000000000000000000077
:10553400A14E00080100000000127A0000127A0057
:0455440000127A00D7
:0400000508004A4560
:00000001FF
